:020000000328D3
:10000600831203138501860183160317880189016C
:1000160083300313850086018312851FA128851C62
:1000260020282430FB008330FC00CF30FD00FD0B80
:100036001A28FC0B1A28FB0B1A280B30FB0026305B
:10004600FC005D30FD00FD0B2628FC0B2628FB0B73
:10005600262800000000051832280610332806144A
:100066000630FB001330FC00AD30FD00FD0B3928D7
:10007600FC0B3928FB0B3928000000000518452821
:100086008610462886140630FB001330FC00AD307F
:10009600FD00FD0B4C28FC0B4C28FB0B4C280000EC
:1000A6000000051858280611592806150630FB00C9
:1000B6001330FC00AD30FD00FD0B5F28FC0B5F2804
:1000C600FB0B5F280000000005186B2886116C28C2
:1000D60086150630FB001330FC00AD30FD00FD0B2D
:1000E6007228FC0B7228FB0B722800000000051812
:1000F6007E2806127F2806160630FB001330FC0009
:10010600AD30FD00FD0B8528FC0B8528FB0B8528F3
:1001160000000000051891288612922886160630DF
:10012600FB001330FC00AD30FD00FD0B9828FC0BE6
:100136009828FB0B98280000000005100F28A2281D
:04400E00F22F000786
:00000001FF
