:020000000328D3
:10000600831203138501860183160317880189016C
:10001600823003138500FF3086008312851FA228D5
:10002600851C21282430FB008330FC00CF30FD00E6
:10003600FD0B1B28FC0B1B28FB0B1B280630FB00AB
:100046001330FC00AD30FD00FD0B2728FC0B2728E4
:10005600FB0B27280000000006183328051034285B
:1000660005140630FB001330FC00AD30FD00FD0B1F
:100076003A28FC0B3A28FB0B3A28000000008618A9
:1000860046280510472805140630FB001330FC00EF
:10009600AD30FD00FD0B4D28FC0B4D28FB0B4D280C
:1000A600000000000619592805105A2805140630C4
:1000B600FB001330FC00AD30FD00FD0B6028FC0B8F
:1000C6006028FB0B60280000000086196C280510CC
:1000D6006D2805140630FB001330FC00AD30FD0022
:1000E600FD0B7328FC0B7328FB0B73280000000024
:1000F600061A7F280510802805140630FB001330E9
:10010600FC00AD30FD00FD0B8628FC0B8628FB0BA2
:10011600862800000000861A9228051093280514E8
:100126000630FB001330FC00AD30FD00FD0B9928B6
:10013600FC0B9928FB0B99280000000005101028DD
:02014600A328EC
:04400E00F22F000786
:00000001FF
